:1007AA0050004700000000000000000000000000A8
:1007BA000000006020005800000000000000000057
:1007CA00000000000000000000000000000000001F
:1007DA000000000000000060200019000000000076
:1007EA0000000000000000000000000000000000FF
:1007FA000000000000000000000000410018014253
:10080A000078000048000028FFEC16311801334830
:10081A00000828FF42F43018014748001028FF0C4E
:05082A00E3301801B2EB
:10000E00438E805389F0758A80758CE3C28DD28CB5
:03001E00D2A92242
:100CAF00759850438E40538EFE53890F758BCC75BC
:090CBF008DFFC2ABD28ED2AC2233
:080003002000FDD2008F9922BC
:0A0D9400E4900057F0A3E0F5992267
:0C0D630074192FF58274003EF583E0FF48
:010D6F002261
:10068D0090004AE025E0FD90004CE025E0900089C7
:10069D00F0E4FBFA900089E0FCFFC3EB9FEA9400C5
:1006AD00501BAF050D7E00120D63745B2BF582742C
:1006BD00003AF583EFF00BBB00010A80D7900018CC
:1006CD00E0900058F0A37404F0A3ECF0900089E0E2
:1006DD002403F07B017A007958E0FD7C0012091F9C
:1006ED00AD07AC06ECFF900089E02458F582E434A8
:1006FD0000F583EFF0900089E004F0E0FE2458F55A
:10070D0082E43400F583EDF0EE04900042F0020D2A
:01071D009447
:03000B00020501EA
:10050100C0E0C0F0C083C082C0D075D000C000C0C0
:0D05110001C002C003C004C005C006C00741
:10051E00900086E4F0A3F0900018E0FF900047E012
:10052E006F7075A3E06404706F900041E0FF640883
:10053E007066EF24FE900088F07B017A007947FD0B
:10054E007C0012091FAD07AC06900088E0FB244723
:10055E00F582E43400F583E0FF900087E02FF09001
:10056E000086E03400F0A3E0FE74482BF582E434FC
:10057E0000F583E07A002400FFEA3E900086F0A3A7
:10058E00EFF0900086E0B5040FA3E0B5050A9000E9
:10059E0078E4F0A3F012068D758A80758CE39000D6
:0305AE0041E4F035
:1005B100D007D006D005D004D003D002D001D0009E
:0B05C100D0D0D082D083D0F0D0E03248
:030023000208AA26
:1008AA00C0E0C083C082C0D075D000C007C2A9C250
:1008BA0001309931C299C200900042E014FF9000C1
:1008CA0057E0C39F5014E004F0E02458F582E43462
:1008DA0000F583E0FF120003802E900057E4F090A9
:1008EA000041F08023309820C298C28C758A8075A6
:1008FA008CE3900041E0FF04F074472FF582E43462
:10090A0000F583E599F0D28CD2A9D007D0D0D08255
:05091A00D083D0E032A3
:1005CC007B017A007900120830AC06AD07E4120109
:1005DC00D1E4FBFA7980783D12002690007A120261
:1005EC00F5E4FF747A2FF582E43400F583E0FE74B1
:1005FC00192FF582E43400F583EEF00FEFB404E329
:10060C007B017A007908120830AC06AD07E41201C0
:10061C00D1E4FBFA7980783D12002690007E12021C
:10062C00F5E4FF747E2FF582E43400F583E0FE746C
:10063C001D2FF582E43400F583EEF00FEFB404E3E4
:10064C007B017A007910120830AC06AD07E4120178
:10065C00D1E4FBFA7980783D1200269000821202D8
:10066C00F5E4FF74822FF582E43400F583E0FE7428
:10067C00212FF582E43400F583EEF00FEFB404E3A0
:01068C00224B
:100AA500D2011209F79000B0E0900025F09000B255
:100AB500E0900026F09000B1E0900027F09000B3A0
:100AC500E0900028F0D201120A4E9000B5E09000A7
:100AD50029F09000B7E090002AF09000B6E0900071
:0B0AE5002BF09000B8E090002CF022F5
:100B2C00120994AC06AD07E41201D19000431202F5
:100B3C00F5E4FF74432FF582E43400F583E0FE7492
:100B4C002D2FF582E43400F583EEF00FEFB404E3BF
:010B5C002276
:100AF00012000E120CAFD2AF900079E004F0700635
:100B0000900078E004F01205CC120AA5120B2CD349
:100B1000900079E09410900078E0942740DAE4F0B7
:0C0B2000A3F012000E120CAFD2AF80CC7C
:1003010000C1814001C0804101C0804100C18140E4
:1003110001C0804100C1814000C1814001C08041D4
:1003210001C0804100C1814000C1814001C08041C4
:1003310000C1814001C0804101C0804100C18140B4
:1003410001C0804100C1814000C1814001C08041A4
:1003510000C1814001C0804101C0804100C1814094
:1003610000C1814001C0804101C0804100C1814084
:1003710001C0804100C1814000C1814001C0804174
:1003810001C0804100C1814000C1814001C0804164
:1003910000C1814001C0804101C0804100C1814054
:1003A10000C1814001C0804101C0804100C1814044
:1003B10001C0804100C1814000C1814001C0804134
:1003C10000C1814001C0804101C0804100C1814024
:1003D10001C0804100C1814000C1814001C0804114
:1003E10001C0804100C1814000C1814001C0804104
:1003F10000C1814001C0804101C0804100C18140F4
:1004010000C0C101C30302C2C60607C705C5C404B3
:10041100CC0C0DCD0FCFCE0E0ACACB0BC90908C823
:10042100D81819D91BDBDA1A1EDEDF1FDD1D1CDC13
:1004310014D4D515D71716D6D21213D311D1D01083
:10044100F03031F133F3F23236F6F737F53534F473
:100451003CFCFD3DFF3F3EFEFA3A3BFB39F9F838E3
:1004610028E8E929EB2B2AEAEE2E2FEF2DEDEC2CD3
:10047100E42425E527E7E62622E2E323E12120E043
:10048100A06061A163A3A26266A6A767A56564A433
:100491006CACAD6DAF6F6EAEAA6A6BAB69A9A868A3
:1004A10078B8B979BB7B7ABABE7E7FBF7DBDBC7C93
:1004B100B47475B577B7B67672B2B373B17170B003
:1004C10050909151935352929656579755959454F3
:1004D1009C5C5D9D5F9F9E5E5A9A9B5B9959589863
:1004E100884849894B8B8A4A4E8E8F4F8D4D4C8C53
:1004F10044848545874746868242438341818040C3
:10091F0090008AEBF0A3EAF0A3E9F0A3ECF0A3EDCB
:01092F00F0D7
:10093000A374FFF0A3F090008D74FFF5F01202D1C4
:1009400045F0604590008AE0FBA3E475F0011202D7
:10095000D1A9F0FA12028BFF90008FE06FFFE4FC48
:10096000FDFE9000911202F5900091A3A3A3E0FC7C
:1009700090030193FE900090E06E90008FF0EC9059
:10098000040193900090F080AD90008FE0FEA3E012
:03099000FDEDFF7B
:010993002241
:070CE0007FF0120CE77FF02A
:0B0CE700AE071FEE6004000080F62244
:100C1200C297120CE0120CE0D2977F78120CE7A276
:100C2200979202120CE07FB4120CE77FB4120CE729
:020C3200A2021C
:010C3400229D
:100C9500C2977F03120CE7D2977F03120CE7A29746
:090CA50092027F78120CE7A20212
:010CAE002223
:100CC800E4FDFCEDC313FD120C955004ED4480FDCA
:070CD8000CECB408EEAF05BF
:010CDF0022F2
:020C3500AD0709
:100C3700E4FCC2977F03120CE7EDC313FD92977F85
:100C470078120CE7D2977F03120CE70CECB408E29A
:010C5700227A
:0B083000900095EBF0A3EAF0A3E9F0C4
:10083B00120C127FCC120C357F44120C35120C1299
:10084B007F55120C35E4A3F0A3F0900098E0FEA3C3
:10085B00E0FFC39408EE94005026900095E0FBA3B4
:10086B00E0FAA3E0F98F828E831202A4FF120C35FB
:10087B00900099E004F070D2900098E004F080CAE8
:10088B007F14120CE77FBE120C35120CC8AB07128B
:0E089B000CC8EFFEEBFF900098EEF0A3EFF01C
:0108A900222C
:030D9E00120DA192
:040DA1007F4EDFFEA4
:010DA500222B
:0E0D280000007F047E0C7D32DDFEDEFCDFFA73
:010D3600229A
:100CF200D290120DA1C290120D28D290120D9E0216
:020D02000DA141
:100B8E00E4FD2090032001FA120D9E120DA1E4FE49
:100B9E003090010E3090032001FA9000B4E025E071
:0D0BAE00F04EF00DEDB408DA9000B4E0FF59
:010BBB002217
:1009F700120CF2D29020904E2090032001FA3090F2
:100A0700032001FA120B8EA907120B8EAC07120BEB
:100A17008EAB07120B8EAA07120B8EAE07C290E49D
:100A2700FD120DA10DEDB405F8D290E92C2B2AB5D6
:100A370006149000B0E9F09000B2ECF09000B1EB32
:060A4700F09000B3EAF09C
:010A4D002286
:030DA600120DA982
:040DA9007F4EDFFE9C
:010DAD002223
:0E0D370000007F047E0C7D32DDFEDEFCDFFA64
:010D4500228B
:100D0400D291120DA9C291120D37D291120DA602E1
:020D14000DA927
:100BBC00E4FD2091032001FA120DA6120DA9E4FE0A
:100BCC003091010E3091032001FA9000B9E025E03C
:0D0BDC00F04EF00DEDB408DA9000B9E0FF26
:010BE90022E9
:100A4E00120D04D29120914E2091032001FA309183
:100A5E00032001FA120BBCA907120BBCAC07120B38
:100A6E00BCAB07120BBCAA07120BBCAE07C291E4BB
:100A7E00FD120DA90DEDB405F8D291E92C2B2AB576
:100A8E0006149000B5E9F09000B7ECF09000B6EBCC
:060A9E00F09000B8EAF040
:010AA400222F
:0A0BEA00EF1FAC0670011E4C601DE9
:100BF400009000957420F0A37428F0900096E014FF
:0B0C0400F070F8900095E014F070F024
:030C0F0080D92267
:040DAE007F26DFFEBF
:010DB200221E
:0A0D890000007F9C7ED5DEFEDFFC3B
:010D9300223D
:0F0D4600D294D293120DAEC294120DAEC293226C
:0C0D7D00C294D293120DAED294020DAEBF
:0E0D5500A2029294D293120DAEC293020DAE82
:0D0D7000D293120DAEA294C293120DAE22CA
:020C7900AE07C4
:100C7B00E4FDEE25E0FE9294D293120DAEC29312D8
:0A0C8B000DAE0DEDB408EB020D7084
:100C5800E4FED294FDEE25E0FED293120DAEA294EE
:100C6800E4334EFEC293120DAE0DEDB408E7AF06A5
:010C78002259
:100D1600AC07120D467F46120C79AF04120C79020D
:020D26000D7D41
:100B5D00120D467F47120C79E4FC120C5874A02C30
:100B6D00F582E43400F583EFF0ECB40304D2028097
:100B7D0002C202120D550CECB403DF120D7D020DF5
:010B8D0089DE
:050DB3007F01020D1696
:10099400120DB37F01120D167F10120D167F827E89
:1009A40000120BEA120B5D9000A0E0FF90009EE4A1
:1009B400F0A3EFF0E0FE9000A1E07C002400FFEC47
:1009C4003EFE90009EF0A3EFF0FDAC06E41201D1D0
:1009D4007B9A7A997999783F12012F90009A1202A2
:1009E400F590009AE0FCA3E0FDA3E0FEA3E0FF1273
:0309F400020A22D2
:10002600EC4D6011E8497017ED33EC3304600DE4D4
:10003600FCFFFEFD22E933E8330470F80202761273
:10004600024158046009E4CC248150062850090274
:10005600028028400302027DC0E0EB4A7044B9806A
:1000660006D0E0FB02026CEF4E701CBD8008EBFF71
:10007600EAFEE9FD80EBE98DF0A4FEE5F002010F52
:10008600E9CDF9EAFEEBFFEF89F0A4FCE5F0CE89B5
:10009600F0A42EFFE435F0CD89F0A42DFEE435F072
:1000A6008067EF4E7005BD80D780C3EF8BF0A4ACA0
:1000B600F0EE8BF0A42CFCE435F0F8EF8AF0A42CDB
:1000C600E5F038FCE433CB8DF0A42CFCE5F03BF8EE
:1000D600EE8AF0A42CFCE5F038F8E433CF89F0A4DE
:1000E6002CFCE5F038CF3400CE89F0A42FFFE5F0E4
:1000F6003EFEE433C98DF0A42EFEE5F039CD8AF03C
:10010600A42FFFE5F03EFEE43DFD33D0E0FB5007B3
:100116000BBB000F020280EC2CFCEF33FFEE33FE2C
:06012600ED33FD0202585A
:10012C00020280EC5D046005E8590470030202765B
:10013C00120241580460F6EC4860F2EC7004FDFECB
:10014C00FF22C860DB2481C85009C39860025006A6
:10015C0002027D9850CAF582E9294B4A7005AB82A0
:10016C0002026C75F0007C1A7880C3EF9BEE9AED5E
:10017C0099400DC3EF9BFFEE9AFEED99FDE842F01E
:10018C00DC23ACF0D0E0FFD0E0FED0E0FDAB822071
:10019C00E7101BEB60BAEC2CFCEF33FFEE33FEEDFB
:1001AC0033FD020258E803F830E705C0F075F000A3
:1001BC00EF2FFFEE33FEED33FD40B830E7C280AADF
:1001CC0075F020800E75F010800575F0087D007EAE
:1001DC00007F003392D530D5031202E7EC33401088
:1001EC00EF33FFEE33FEED33FDEC33FCD5F0ED22B7
:0E01FC00E5F0247EA2D513CC92E7CDCEFF22F3
:10020A00EDD2E7CD33EC3392D524814006E4FFFEEC
:10021A00FDFC22FCE4CFCECDCC24E0501174FF804B
:10022A00EDC3CC13CCCD13CDCE13CECF13CF0470E8
:07023A00F030D5DE0202E7FF
:10024100E9D2E7C933E833F892D5EDD2E7CD33EC03
:0702510033FC5002B2D5227C
:10025800EC30E7100FBF000C0EBE00080DBD000407
:100268000BEB6014A2D5EB13FCED92E7FD2274FFB3
:10027800FCFDFEFF22E480F8A2D574FF13FC7D800C
:03028800E480EF20
:0300000002071ED6
:0C071E00787FE4F6D8FD758120020765A5
:10028B00BB010689828A83E0225002E722BBFE0271
:09029B00E32289828A83E49322A4
:1002A400BB010CE58229F582E5833AF583E022500F
:1002B40006E92582F8E622BBFE06E92582F8E22259
:0D02C400E58229F582E5833AF583E4932273
:1002D100A3F8E0C5F025F0F0E582158270021583E0
:0602E100E0C838F0E8223D
:0E02E700C3E49FFFE49EFEE49DFDE49CFC2228
:0C02F500ECF0A3EDF0A3EEF0A3EFF0227C
:10072A00020AF0E493A3F8E493A34003F68001F2EB
:10073A0008DFF48029E493A3F85407240CC8C333D0
:10074A00C4540F4420C8834004F456800146F6DF9F
:10075A00E4800B01020408102040809007AAE47E7E
:10076A00019360BCA3FF543F30E509541FFEE49394
:10077A00A360010ECF54C025E060A840B8E493A35B
:10078A00FAE493A3F8E493A3C8C582C8CAC583CA86
:10079A00F0A3C8C582C8CAC583CADFE9DEE780BE3E
:01082F0000C8
:00000001FF
